:020000040800F2
:10000000900400200D020008870E0008330E00083F
:10001000850E0008190300083711000800000000D1
:100020000000000000000000000000008D0E00082D
:100030001B03000800000000890E00088F0E000856
:1000400027020008270200082702000827020008EC
:10005000270200088B0E000827020008270200086C
:1000600027020008270200082702000827020008CC
:1000700027020008270200082702000827020008BC
:1000800027020008270200082702000827020008AC
:10009000270200082702000827020008270200089C
:1000A000270200085D0F0008270200082702000849
:1000B000270200082702000827020008270200087C
:1000C000270200082702000827020008270200086C
:1000D000270200082702000827020008270200085C
:1000E000270200082702000827020008270200084C
:1000F000270200082702000827020008270200083C
:10010000270200082702000827020008270200082B
:10011000270200082702000827020008270200081B
:10012000270200082702000827020008270200080B
:1001300027020008270200082702000827020008FB
:1001400027020008270200082702000827020008EB
:1001500027020008270200082702000827020008DB
:1001600027020008270200082702000827020008CB
:1001700027020008270200082702000800000000EC
:1001800027020008270200082702000827020008AB
:10019000270200082702000827020008270200089B
:1001A000270200082702000827020008270200088B
:1001B000270200082702000827020008270200087B
:1001C000270200082702000800000000270200089C
:1001D000270200082702000827020008270200085B
:1001E000270200082702000827020008270200084B
:1001F0002702000827020008DFF80CD000F07AF888
:100200000048004779110008900400200648804704
:1002100006480047FEE7FEE7FEE7FEE7FEE7FEE7EB
:10022000FEE7FEE7FEE7FEE7090F0008F901000818
:100230002DE9F05F0546002092469B46884606461B
:10024000814640241BE0284641464746224600F0AE
:1002500041F853465A46C01A914110D311461846E8
:10026000224600F028F82D1A67EB01084F46224677
:100270000120002100F01FF817EB00094E41201E5D
:10028000A4F10104DFDC484631462A464346BDE876
:10029000F09FD2B201E000F8012B491EFBD270475B
:1002A0000022F6E710B513460A4604461946FFF742
:1002B000F0FF204610BD202A04DB203A00FA02F1AC
:1002C000002070479140C2F1200320FA03F3194344
:1002D00090407047202A04DB203A21FA02F00021E6
:1002E000704721FA02F3D040C2F120029140084346
:1002F00019467047064C074D06E0E06840F00103E0
:1003000094E8070098471034AC42F6D3FFF778FF23
:100310001812000838120008FEE770472DE9F84F60
:10032000DFF89CE100224FF001084FF0030B4FF083
:100330000F0A00BF0B6808FA02F42340A34271D1F0
:100340004D68022D01D0122D0FD1D5080E69570727
:1003500000EB8505A9462D6AFF0E0AFA07FCBE4090
:1003600025EA0C052E43C9F820600F795500066870
:100370000BFA05FC07F0030726EA0C06AF403743EB
:1003800007604E68012E05D0022E03D0112E01D039
:10039000122E0ED18668CF6826EA0C06AF4037438E
:1003A000876046680F79A643C7F300179740374325
:1003B0004760C4688E6824EA0C04AE402643C660D9
:1003C0004C68E40075D53F4C256845F480452560B0
:1003D000246822F00306950704F4804400943A4C04
:1003E0002D0F2644D6F80848DFF8E0C00AFA05F7D2
:1003F000604524EA070401D100272EE0344FB842BB
:1004000001D1012729E0334FB84201D1022724E06E
:10041000314FB84201D103271FE0304FB84202D11B
:1004200004271AE045E02E4FB84201D1052714E019
:100430002C4FB84201D106270FE02B4FB84201D113
:1004400007270AE0294FB84201D1082705E0284FC5
:10045000B84201D1092700E00A27AF40274375467B
:10046000C6F808784E68DEF80040F60324EA030474
:1004700000D51C43124E2C60361D4D683468AD0308
:1004800024EA030400D51C430D4F346008374D683F
:100490003C68ED0224EA030400D51C43084D3C608F
:1004A0000C354E682C68B60224EA030400D51C43C0
:1004B0002C60521C102AFFF43DAFBDE8F88F0000FD
:1004C000003C01404438024000300140000002403E
:1004D0000004024000080240000C024000100240EC
:1004E0000014024000180240001C0240002002409C
:1004F00000240240426931EA020200D1090481610C
:1005000070470AB1816170470904FBE701488068C0
:100510007047000000000020024881680278114402
:100520008160704700000020032010B500F076F8CD
:10053000002000F005F800F023F8002010BD0000B6
:1005400070B50D4D04464FF47A700C4A2978126844
:10055000B0FBF1F0B2FBF0F000F0D8FA48B9102C83
:1005600007D200222146501E00F038F800206C60AF
:1005700070BD012070BD0000000000200C000020B4
:100580000E4808B5016841F080510160006800F034
:10059000805000900948001D016841F480410160CD
:1005A00000680022114600F480400090052000F011
:1005B00015F8BDE80840052000F002B840380240B8
:1005C000002809DB410900F01F028900012001F128
:1005D000E0219040C1F80001704700000E4BF0B4DC
:1005E0001B680D46C3F30223C3F10706042E00D98E
:1005F0000426191D072901D2002300E0DB1E012477
:1006000004FA06F19C40491E2940641E994014409A
:100610002143F0BC00F090BD0CED00E0064900F075
:10062000070210B54FF6FF040868044B204040EA6B
:1006300002201843086010BD0CED00E00000FA0530
:100640002DE9F04705000F4663D0444E306800F0B6
:100650000F00B84209D2306820F00F0038433060F4
:10066000306800F00F00B84253D128683C4C810735
:1006700012D5400703D5206840F4E0502060287868
:10068000000703D5206840F460402060A968206816
:1006900020F0F000084320602878C0072AD03049B5
:1006A00068680839012810D00968022810D0890725
:1006B00000292EDA216821F0030101432160FFF7B0
:1006C00025FF804641F288390DE009688903EFE78C
:1006D0008901EDE7FFF71AFFA0EB0801494502D9B0
:1006E0000320BDE8F0876868216801F00C01B1EBD8
:1006F000800FEFD1306800F00F00B8420BD930689E
:1007000020F00F0038433060306800F00F00B8422E
:1007100001D00120E5E72878400705D5E968206881
:1007200020F4E050084320602878000706D52869A7
:10073000216821F4604141EAC000206000F016F811
:100740002168084AC1F30311515CC840064908609A
:100750000020FFF7F5FE0020C3E70000003C024048
:1007600008380240081200080C000020154910B596
:100770001548096811F00C0213D01449042A0FD04F
:10078000082A0ED10F4C241F2268236802F03F0272
:100790005B0207D52068C0F38810A0FB010106E0CA
:1007A000084610BD2168C1F38811A1FB0001002398
:1007B000FFF73EFD2168C1F30141491C4900B0FB30
:1007C000F1F010BD083802400024F40040787D01AB
:1007D0002DE9F84F05004FF000076ED02878DFF8BC
:1007E0002093A9F1040AC007AAF104044CD0D9F857
:1007F00000104846C1F38101012908D00068C0F308
:10080000810002280AD1DAF80000400206D52068EB
:10081000800339D568680028DFD035E06868B0F516
:10082000803F0BD010B1B0F5A02F11D0206820F47C
:1008300080302060206820F4802002E0206840F4AE
:1008400080302060686890B1FFF760FE06460AE0DD
:10085000206840F480202060F0E700BFFFF756FEDC
:10086000801B642872D820688003F7D50CE0FFF75E
:100870004DFE064605E000BFFFF748FE801B6428DA
:10088000F0D820688003F7D42878800742D5D9F8BB
:100890000010484611F00C0F08D00068C0F381002A
:1008A00002280BD1DAF80000400207D42068800744
:1008B00018D5E868012800D114E01EE1E868002896
:1008C000206817D040F001002060FFF71FFE0646A9
:1008D00005E000BFFFF71AFE801B0228C2D820687F
:1008E0008007F7D52869216821F0F80141EAC000A6
:1008F00020600FE020F001002060FFF707FE0646B1
:1009000005E000BFFFF702FE801B02281ED820680A
:100910008007F7D42878000729D5794869696C30B1
:1009200000298046016812D041F001010160FFF703
:10093000EDFD064605E000BFFFF7E8FD801B02283D
:1009400004D8D8F800008007F6D510E089E021F03F
:1009500001010160FFF7DAFD064604E0FFF7D6FD6E
:10096000801B02287DD8D8F800008007F6D42878AC
:1009700040076BD5DFF8888108F13808D8F8000007
:10098000C0000BD4D8F8001041F08051C8F8001016
:10099000D8F80000012700F0805000905948016805
:1009A000C90512D40168834641F480710160FFF7E4
:1009B000ADFD064605E000BFFFF7A8FD801B6428DB
:1009C0004FD8DBF80000C005F6D54D4EA868683654
:1009D00001280AD008B1052811D0306820F00100A4
:1009E0003060306820F0040002E0306840F0010020
:1009F0003060A868A0B1FFF789FD83460CE030683D
:100A000040F004003060F0E7FFF780FDA0EB0B0141
:100A100041F28830814268D830688007F4D50EE012
:100A2000FFF774FD834607E0FFF770FDA0EB0B01B5
:100A300041F28830814258D830688007F4D42FB111
:100A4000D8F8001021F08051C8F80010A869E0B370
:100A5000D9F80010C1F3810102294ED00228206884
:100A600000E042E020F08070206003D0FFF74EFDF0
:100A700005463DE0FFF74AFD064604E0FFF746FD68
:100A8000801B022831D820688001F7D4D5E90921DC
:100A9000DFF874C0D5E9070695F830304F0895F8AF
:100AA0002C1030430CEB074545EA8212104340EA14
:100AB000016040EA0370CAF80000206840F08070CE
:100AC0002060FFF723FD054605E014E0FFF71EFD5B
:100AD000401B022809D820688001F7D50BE000BF31
:100AE000FFF714FD401B022802D90320BDE8F88F50
:100AF00020688001F4D40020F8E70120F6E7000028
:100B000008380240007000400000FFFF401EB0F1B6
:100B1000807F10B501D3012010BD4FF0E02460614B
:100B20000F21601700F008FB0020A0610721216160
:100B300010BD70477047704770B590F83C20012A8F
:100B400024D0134C012580F83C50022280F83D202F
:100B500002685368A242966802D00E4CA24203D1AA
:100B60004C6823F4700323430C6823F070038968F6
:100B70001C435460002326F08006026831439160D4
:100B800080F83D5080F83C30184670BD022070BDA2
:100B9000000001400004014010B5040003D094F8A7
:100BA0003D0010B107E0012010BD002084F83C009A
:100BB000204600F00DF8022084F83D002068211D39
:100BC00000F0E0F9012084F83D00002010BD000095
:100BD00008B5114A01681148914207D1016841F0F6
:100BE00001010160006800F0010009E00C4A914237
:100BF00011D1016841F400310160006800F4003057
:100C00000090002219201146FFF7E8FCBDE80840DB
:100C10001920FFF7D5BC08BD000001404438024050
:100C2000004401400168094ACB6843F00103CB60EE
:100C3000016888681040062806D0B0F5803F03D0D0
:100C4000086840F0010008600020704707000100BC
:100C5000704770B50446006800250169C9438907DB
:100C600015D4C168C943890711D4EA1E0261012164
:100C70002177206880698007204602D0FFF7E8FFCF
:100C800004E000F0A7F8204600F0A5F825772068DA
:100C90000169C943490717D4C168C943490713D437
:100CA00002216FF00402026121772068806910F44C
:100CB000407F204602D0FFF7CBFF04E000F08AF827
:100CC000204600F088F8257720680169C9430907A4
:100CD00016D4C168C943090712D404216FF0080271
:100CE000026121772068C0698007204602D0FFF7A3
:100CF000AFFF04E000F06EF8204600F06CF82577B6
:100D000020680169C943C90617D4C168C943C90627
:100D100013D408216FF01002026121772068C069A6
:100D200010F4407F204602D0FFF792FF04E000F06D
:100D300051F8204600F04FF8257720680169C94333
:100D4000C90708D1C168C943C90704D1891E016117
:100D5000204600F041F820680169C943090609D41A
:100D6000C168C943090605D46FF0800101612046BE
:100D7000FFF7E0FE20680169C943C90509D4C168CD
:100D8000C943090605D46FF4807101612046FFF75D
:100D9000D0FE20680169C943490609D4C168C94326
:100DA000490605D46FF040010161204600F040F88B
:100DB00020680169C94389060BD4C168C943890603
:100DC00007D46FF0200101612046BDE87040FFF7B5
:100DD000B2BE70BD70477047704770B5044690F85A
:100DE0003C00012812D0012584F83C50022084F8F0
:100DF0003D00204600F036F900284FF0000007D0F3
:100E000084F83D5084F83C00012070BD022070BD84
:100E10002168CA6822F04002CA602168CA6822F4C8
:100E20008042CA6084F83D5084F83C00002070BDC8
:100E30007047FEE710B588B014216846FFF730FA16
:100E40000F4800240D49059406940794C0E9001446
:100E50008460C460046144618461FFF79DFE0848BA
:100E6000694600940194FFF7B8FF054805A9059469
:100E700006940794FFF760FE08B010BD0000014023
:100E800010000020FEE77047704770477047FFF77B
:100E900043BB000010B594B034216846FFF700FA58
:100EA00014210DA8FFF7FCF91548016841F08051A5
:100EB0000160006800F0805012901248016821F42F
:100EC000404141F48041016000680221012200910B
:100ED00000F440401290102000240694CDE9032035
:100EE0006846FFF775FC0F20CDE90D0400210F9433
:100EF0000DA810941194FFF7A3FB14B010BD0000CF
:100F00004038024000700040104A30B51048146864
:100F100000210F4B44F470041460083305680D4A37
:100F20000D4C45F00105056019600368051D13406F
:100F3000074A03600C322C600568E305034C25F476
:100F400080250560803C1160236030BD88ED00E0A5
:100F500000380240FFFFF6FE10300024064810B5AE
:100F6000FFF777FE0548FFF774FEBDE81040044820
:100F70004FF48041FFF7BEBA10000020500000205F
:100F800000040240F0B5274B4FF0804E264D02681A
:100F90009842264E264F274C09D0704507D0A842CC
:100FA00005D0B04203D0B84201D0A04205D1D1F85B
:100FB00004C022F070024CEA020298421BD0704535
:100FC00019D0A84217D0B04215D0B84213D0A042D1
:100FD00011D0194DA8420ED0184DA8420BD0184D73
:100FE000A84208D0174DA84205D0174DA84202D0FC
:100FF000164DA84203D1CD6822F440722A434D69B0
:1010000022F080022A43026098428A68C2620A681B
:10101000826201D0A04201D10969016301214161CD
:10102000F0BD000000000140000400400008004046
:10103000000C004000040140004001400044014019
:101040000048014000180040001C00400020004003
:1010500042EA032283680A4323F47F410A43826001
:101060007047000070B5D1E9002304681F4EA568E1
:1010700025F070052B4333401A43A2604A6812F0F2
:101080000F0F30D11211082A2DD2DFE802F02C2CDC
:101090002C2C0B2127048A680068D1E90313FFF781
:1010A000D7FF20E00A68052A10D00268136A146A84
:1010B00024F00104146202680C69916921F0F001C6
:1010C00041EA04119161006803620CE0012070BDE7
:1010D0000A690068896800F00BF804E00A69006892
:1010E000896800F016F8002070BD0000F8FFFEFFD0
:1010F00010B5036A046A23F00A0324F001040462B1
:1011000084690B4324F0F00141EA0211816103621A
:1011100010BD10B5036A23F0100303628369046AEB
:1011200023F4704324F0A00443EA0232826144EACB
:101130000111016210BDFEE7090700284FEA1161A5
:1011400004DB00F1E02080F80014704700F00F008D
:1011500000F1E02080F8141D704702E008C8121F5B
:1011600008C1002AFAD170477047002001E001C190
:10117000121F002AFBD1704786B0FFF7D5F9FFF7A1
:1011800089FE14216846FFF78BF81B48016841F07F
:1011900080010160016801F080010591016841F062
:1011A0000201016000684FF48045144E002200F0F7
:1011B0000200294605903046FFF7A3F90024009568
:1011C00001206946CDE9010430460394FFF7A6F8F3
:1011D000FFF730FE0B4840F23F6142F20F72084BBE
:1011E000C0E9024104618461C0E90032FFF7D4FC28
:1011F0000448FFF717FDFEE73038024000040240C4
:1012000000440140500000200000000000000000E9
:101210000102030406070809381200080000002034
:10122000100000005A1100084812000810000020A9
:10123000800400006A110008010000001000000096
:08124000000000000024F4008E
:04000005080001F9F5
:00000001FF
